S01F00005241344D325F545559415F4342555F50726F6A656374332E737265637B
S31500000000D0040020210D0000C50B00001D0D0000CE
S315000000101D0D00001D0D00001D0D00001D0D000032
S315000000200000000000000000000000001D0D0000A0
S315000000301D0D0000000000001D0D00001D0D00003C
S31500000040850400000348044B834202D0034B03B1EE
S31500000050184770470C0000200C000020000000002C
S31500000060064B0749C91A891048BF0131491003D008
S31500000070044B0BB101481847704700BF0C00002025
S315000000800C0000200000000010B5064C237843B990
S31500000090FFF7D8FF044B13B10448AFF300800123E8
S315000000A0237010BD2800002000000000900F000003
S315000000B008B5054B1BB105490548AFF30080BDE8FF
S315000000C00840FFF7CDBF00BF000000002C00002055
S315000000D0900F0000024A137883F0010313707047F3
S315000000E0480000202DE9F8432F49304800F068F910
S315000000F028B17C212E4B2F4A2F4800F02FFD2B488C
S3150000010000F09EF90028F4D12C492D4800F0F0FAB1
S3150000011028B942F228312A4800F0F4F928B18021A2
S31500000120234B244A244800F019FD254800F0E4F941
S315000001300028F4D102460146214800F031FA002891
S31500000140EDD14FF001094FF47A781E4F1E4D1F4C2A
S315000001501F4E0FE00131B1F57A7F1DD2216001EB10
S31500000160C1010022164800F01BFA4FF47A710120F3
S3150000017000F0FCFC4FF4827130463A7800F03CF80F
S315000001802B782168002BE5D10139216009B985F862
S31500000190009001EBC101E4E7002342F22831C4F8E4
S315000001A000802B70DDE700BFD40E00005400002055
S315000001B0A00E0000C80E0000B40E0000EC0E0000F9
S315000001C064000020480000200000002044000020B9
S315000001D04C000020022800D070470249024800F077
S315000001E0E5B800BF480F00004C00002008B5FFF737
S315000001F079FF002008BD00BF0120CBB2984080B235
S3150000020002B900040B0A5B0103F1804303F50023E6
S3150000021098600020704700BF2DE9F84F0388DBB1D6
S3150000022082464FF0000B4FF00109DFF8D080002422
S31500000230304D4FEACB07DAF8043035F8022BD919DE
S31500000240898891420AD00134032CF4D1BAF80030DF
S315000002500BF1010B5B45EAD8BDE8F88FDB5909FACB
S3150000026004F603F0B853B3F1807FF6B298F8BB34C6
S3150000027013D0334231D1204A04F1200612F8163049
S31500000280DB09E0D012F81630012123F08003C820E4
S3150000029002F8163000F06AFCD5E7334211D0164A50
S315000002A004F1200112F81130DB09CCD112F811301B
S315000002B0C82043F0800302F81130012100F056FCFB
S315000002C0C1E7012000F000FD98F8BB34012033435C
S315000002D088F8BB3400F0C8FCE1E7012000F0F4FC2C
S315000002E098F8BB34012023EA060388F8BB3400F0F3
S315000002F0BBFCC0E7800F00000030084000E0014072
S31500000300F8B50646FFF788FFEFF31082012383F363
S315000003101088234F3B681BB92249CB704023CB7012
S315000003203B6801333B6082F31088338823B3002196
S315000003301D4D08E01B01134445F823403288013166
S315000003408BB29A4218D9736853F8314003EBC10255
S315000003509288E0034FEA1223D2B2EBD502EB0310E8
S3150000036055F820E024F4803C2EF4803E45F820E049
S315000003701B0145F820C0DEE7EFF31082012383F36B
S3150000038010883B6813B13B68013B3B603B681BB977
S3150000039080200449CB70C87082F31088F8BD00BF76
S315000003A0BC000020000D08400008084008B5034BBB
S315000003B003600846FFF7A4FF002008BD54524F50C3
S315000003C070B40025034691F902201A4C027192007E
S315000003D002F1804202F5C042D2F80063C2F800532F
S315000003E08A688260CA68C2600878587125540D7997
S315000003F0CA7842EA05124D7942EAC512D2B22254AF
S3150000040093F90420C03244F8226093F904000028CE
S315000004100BDB4A78084C120100F16041D2B201F5BB
S31500000420614181F8002344F82030044A00201A6014
S3150000043070BC704700600040C00000205543490072
S3150000044090F904200E4B02F1C00153F8210020F46C
S31500000450803043F8210053F82130BFF35F8F01212C
S3150000046053099B0002F01F0203F1604303F5614349
S3150000047001FA02F2C3F880211A600020704700BF1B
S315000004800060004010B582B0EFF30384184B103CB7
S3150000049064B253F82410174A4879135C03F0030337
S315000004A0032B12D0C03452F8243023F4803342F8A0
S315000004B0243052F824308B682BB14879CA68CDE9CC
S315000004C000206846984702B010BD8B6823B1CA6801
S315000004D0CDE9002068469847064BC03453F82420DF
S315000004E022F4803243F8242053F8243002B010BDA1
S315000004F0C00000200060004003460020D3E902232C
S315000005005360704783684A1E9A6643681B782BB906
S315000005108368490801395965836899658368D96A8A
S31500000520C90707D44FF4AA015A6683681964D0E94B
S315000005300232DA600020704730B48C6E01342AB182
S31500000540944203D930BC013A1A607047029D496B48
S315000005500078ED0754BF01F01F01C1F304410328E1
S3150000056008D9090981F001016AB9A1B930BC022292
S315000005705A60704701F00C01A1F10401B1FA81F152
S315000005804909002AF1D0944201D80029EED130BCA5
S3150000059003225A607047002CE8D0F8E7FFFFFFFF00
S315000005A09FED397B2DE9F04385B00092866802AB5A
S315000005B0074688461446406802F003090A46314653
S315000005C08DED027BFFF7B8FF039B356B93B914F0F3
S315000005D0080F14BF04220222A107029820D502F1B7
S315000005E0120106EB81014860B968133201EB820102
S315000005F04860BE6862061BD5326CB9F1010F42F441
S315000006008002326427D025F44035BE6845EA0345AA
S31500000610B9F1000F16D10020356305B0BDE8F083AF
S315000006204A44123206EB820250606206BE68E3D488
S31500000630B9F1010F23D025F44035022C45EA0345D4
S31500000640E6D173B925F0407545EA036500203563A8
S3150000065005B0BDE8F08325F04075BE6845EA036540
S31500000660F4E70121786802AB009142463146FFF774
S3150000067063FF039B25F0407545EA0365E6E7022C18
S31500000680E0D1DEE7AFF30080FFFFFFFF00000000D0
S31500000690002800DA704710B400F160430901124CDB
S315000006A0C9B203F5614383F80013104B44F82020C8
S315000006B000F1C00253F8221021F4803143F82210D1
S315000006C053F82230BFF35F8F012243099B0000F0ED
S315000006D01F0003F1604303F561438240C3F88021A4
S315000006E01A605DF8044B7047C000002000600040AF
S315000006F04FF0010C2DE9F04300270A7C41600CFA0B
S3150000070002F212F00F0FC2600CBF62463A46027444
S315000007100A7C8B4B0D4613441B0283604B690446CF
S3150000072043618B6985B0C0E90673CE69EFF310802B
S315000007308CF310884FF000412A7C824BD1401A6915
S3150000074022EA01021A611B6980F310884FF42542E0
S31500000750A36800201A60A3689FED777BDF62A36819
S31500000760DF63A3689F642A782B7A032A4FF000423E
S31500000770A7684FEAC35308BF43F480336968FB6236
S31500000780A36801391A61A3685A61A3689A61A368CC
S315000007905862A3689862A368B269DA61A368F269CD
S315000007A01A62A3689966A36859662B788DED027B59
S315000007B0B76B002B40F089804FF0010903206A686F
S315000007C0D4F808805208013A0292C8F85420A16869
S315000007D08A652978032903D9A168CA65A1680A66CA
S315000007E0B26BD2B93278AAB12A787178022A4FEA66
S315000007F0811E4FEA011C00F09880032A03D00029CD
S315000008000CBF062209223A4342EA0E0242EA0C02D1
S3150000081042F48077B278002A6CD16268D26992F885
S315000008203010CB0705D5916AA3680139D96492F8CF
S3150000083030108B0703D5D26AA168013A0A650022F7
S31500000840A1688A63A168C1F88820B26B3AB996F8A4
S31500000850212096F82010520742EA4132174396F8B3
S315000008603020002A14BF4FF4A0014FF4AA01A26859
S3150000087011642A78012A04D10022A168CA64A168F9
S315000008800A65A2685763A2681063A268C2F830902E
S31500000890D4E90232DA60697C224695F91200FFF744
S315000008A0F7FE224696F8221096F92400FFF7F0FE8E
S315000008B096F92500224696F82310FFF7E9FE002058
S315000008C0214B236005B0BDE8F083012BD4F80880E6
S315000008D026D000904146EA68606802ABFFF72CFE1E
S315000008E0DDE902210B0643EA014343F0030043F02E
S315000008F001096AE796F803C029784FEA0C12022923
S3150000090042EA8C1213D0032904D0BCF1000F0CBFAD
S31500000910062109210A4347EA024242F080777CE732
S31500000920994603204FF0FF324FE709226BE7092172
S31500000930F0E700BFAFF30080FFFFFFFF00000000FD
S31500000940901640000040084054504700064B0749A7
S3150000095093F826001A6A51F82030C2F3026204495D
S31500000960D3400B60704700BF00E001400C00002040
S31500000970CC000020704700BFF8B54AF203500123AF
S315000009803F49404AA1F8FE03A2F80431B2F8043107
S315000009909BB2002BFAD14FF0010C4FF400412025F9
S315000009A00920394C394F3A4E67603A4F344BE7606D
S315000009B0A2F800C1384A2660A1602161626193F8FD
S315000009C02620196A54F82220344EC1F30261CA4027
S315000009D0326083F8135483F8A20093F880241AB97E
S315000009E093F88134990746D0254D95F88034002B2D
S315000009F036D00022224B83F8812483F880240023FA
S31500000A001F4981F8323091F83C301A07FBD543F67E
S31500000A10013000231A4A088581F82A3092F83C30C2
S31500000A209B06FBD5012005231649F12581F81C01FB
S31500000A301B49116282F8263092F82630106A54F863
S31500000A402310C0F30260C14031600024F0204FF44F
S31500000A502541144B1D731C721873A2F8FE13F8BDC2
S31500000A600121C82085F8801400F080F895F88034BC
S31500000A70012BFBD1BDE74FF47A70FFF77BFFBEE792
S31500000A8000E0014000C001400C00002000127A0086
S31500000A90002D3101001BB7000095BA0ACC000020DA
S31500000AA0211202210020004038B50025284C0121E2
S31500000AB0C82084F8285000F059F884F8245094F897
S31500000AC02430002BFBD194F82430214943F0020353
S31500000AD084F8243091F82430C3F340009B07F9D4FE
S31500000AE01B4A81F8220092F8223003F0FF00002B07
S31500000AF0F9D192F84030164960F3C71382F84030B6
S31500000B0091F84030DB09FBD191F84200104A63F3BB
S31500000B10C71081F8420092F84230DB09FBD192F807
S31500000B2044000B4963F3C71082F8440091F844303F
S31500000B30C3F3C014DB09F9D1012000F0C5F8054B59
S31500000B40012083F8BB44BDE8384000F08DB800BFF3
S31500000B500030084000E00140704700BF00BEFEE7DD
S31500000B60A0F101000028FBD1704700BF4FF47A7353
S31500000B7010B400FB01F1114C114A2468B2FBF4F2E7
S31500000B80A1FB03043CB9B0FBF2F0800860B15DF84C
S31500000B90044BFFF7E5BF9200B1FBF2F1A1FB031393
S31500000BA02BB908460028F2D15DF8044B70474FF088
S31500000BB0FF3C5DF8044B6046FFF7D2BFCC00002037
S31500000BC000CA9A3B70B500240B4B0C4EB3F820219B
S31500000BD0B3F84051ADB2154025FA04F3DB0704D54E
S31500000BE056F82430E0B203B1984701340E2CF3D105
S31500000BF0014BA3F8305170BD006000408400002016
S31500000C0010B5032084B000F05FF84FF0FF326FF0AC
S31500000C10FF011148114B04889964CDE90122039222
S31500000C201CB16FF001031A4601930C490C4B0A677D
S31500000C30C3F88022029A03204A67C3F88422039AE3
S31500000C408A67C3F8882200F00FF814B1054BC3F881
S31500000C50004304B010BD00BF7C0F000000800040C0
S31500000C6000E100E000600040EFF31081012383F310
S31500000C701088124B33F8102092B22AB133F81020A4
S31500000C80013A92B223F8102033F810309BB293B990
S31500000C9010B40B4A0B4CB2F8FE3334F810009BB27A
S31500000CA043F4254323EA0003A2F8FE3381F31088B8
S31500000CB05DF8044B704781F310887047C40000202C
S31500000CC000E00140880F000030B4EFF310810123EB
S31500000CD083F310880E4A32F810309BB26BB90D4C74
S31500000CE00D4DB4F8FE3335F810C09BB243EA0C0341
S31500000CF043F425439BB2A4F8FE3332F81030013397
S31500000D009BB222F8103081F3108830BC704700BFC8
S31500000D10C400002000E00140880F000000BE7047BC
S31500000D2008B500F003F8FFF761FAFEE74FF470022A
S31500000D3070B52B4B2B4CC3F8882000209C60FFF726
S31500000D4049FAFFF719FE0120FFF744FA2368A3F5D5
S31500000D50806383F30A882448244A0021121A00F08B
S31500000D6055F82348234A2449121A00F057F8234D10
S31500000D70234B5B1B002B07DD00249E1055F8043B1C
S31500000D8001349847A642F9DCFFF7E0FDFFF78CFE39
S31500000D900320FFF799FF4FF6FF720024194B03203B
S31500000DA01A825A829A82DA821A835A839A83DA8359
S31500000DB0FFF75AFF0320FFF787FF134B03205C6002
S31500000DC09C60DC601C61FFF74FFF0220FFF702FA10
S31500000DD0FFF716FF2046BDE87040FFF7BDBE00BF17
S31500000DE000ED00E00000000028000020D0000020F8
S31500000DF0000000200C000020940F000004000020DA
S31500000E0008000020000D084000000E400244034682
S31500000E10934200D1704703F8011BF9E70A44431EC9
S31500000E20914200D1704710B511F8014B914203F879
S31500000E30014FF9D110BDFFFF4275696C74207769C7
S31500000E4074682052656E6573617320416476616EC5
S31500000E5063656420466C657869626C6520536F66CD
S31500000E607477617265205061636B61676520766592
S31500000E707273696F6E20352E392E3000352E392E5D
S31500000E803000000000000905F8B500BFF8BC08BC3A
S31500000E909E467047F8B500BFF8BC08BC9E46704732
S31500000EA04653505F53554343455353203D3D2065BC
S31500000EB0727200002E2E2F7372632F68616C5F654D
S31500000EC06E7472792E6300FF68616C5F656E747272
S31500000ED07900FFFF040C000103000000D5000000AC
S31500000EE000000000E80E000000FFFFFF0000000009
S31500000EF0905F010000000000C8AF000002FFDF00A5
S31500000F0000000000000000000C0F000001000000BF
S31500000F1000000000000000000000000000000000CB
S31500000F200000000000000000000000000000FFFFBD
S31500000F30DFDF0000000000000000000000000000ED
S31500000F40000000000000000005000000540F000033
S31500000F50000000000000010303010000040000007F
S31500000F60040100000000010008010000004000002C
S31500000F700B01000000000100000300000500FFFF58
S31500000F80020403040404FFFF01000200080010002D
S30900000F900000000057
S31100000F9401000000B10000008900000010
S3150100A100FFFFFFFFFFFFFFFFFFFFFFFFFFFFFFFF58
S3090100A134FFFFFFFF24
S3150100A200FFFDFFFFFFFFFFFFFFFFFFFFFFFFFFFF59
S3150100A210FFFFFFFFFFFFFFFFFFFFFFFFFFFFFFFF47
S3150100A220FFFFFFFFFFFFFFFFFFFFFFFFFFFFFFFF37
S3150100A230FFFFFFFFFFFFFFFFFFFFFFFFFFFFFFFF27
S3150100A240FFFFFFFFFFFFFFFFFFFFFFFFFFFFFFFF17
S3150100A250FFFFFFFFFFFFFFFFFFFFFFFFFFFFFFFF07
S3150100A260FFFFFFFFFFFFFFFFFFFFFFFFFFFFFFFFF7
S3150100A270FFFFFFFFFFFFFFFFFFFFFFFFFFFFFFFFE7
S3150100A280F8F8FFFFFFFFFFFFFFFFFFFFFFFFFFFFE5
S3150100A290FFFFFFFFFFFFFFFFFFFFFFFFFFFFFFFFC7
S3150100A2A0FFFFFFFFFFFFFFFFFFFFFFFFFFFFFFFFB7
S3150100A2B0FFFFFFFFFFFFFFFFFFFFFFFFFFFFFFFFA7
S3150100A2C0FFFFFFFFFFFFFFFFFFFFFFFFFFFFFFFF97
S70500000D21CC
